:020000040800F2
:100000007806002089010008690A0008650A0008CE
:10001000670A00088F020008CD0A000800000000EF
:100020000000000000000000000000006D0A000851
:1000300091020008000000006B0A00086F0A000827
:10004000A3010008A3010008A3010008A301000800
:10005000A3010008A3010008A3010008A3010008F0
:10006000A3010008A3010008A3010008A3010008E0
:10007000A3010008A3010008A3010008A3010008D0
:10008000A3010008A3010008A3010008A3010008C0
:10009000A3010008A3010008A3010008A3010008B0
:1000A000A3010008A3010008A3010008A3010008A0
:1000B000A3010008A3010008A3010008A301000890
:1000C000A3010008A3010008A3010008A301000880
:1000D000A3010008A3010008A3010008A301000870
:1000E000A3010008A3010008A301000800F002F822
:1000F00000F03AF80AA090E8000C82448344AAF188
:100100000107DA4501D100F02FF8AFF2090EBAE885
:100110000F0013F0010F18BFFB1A43F0010318473B
:10012000580A0000780A0000103A24BF78C878C145
:10013000FAD8520724BF30C830C144BF04680C60ED
:10014000704700000023002400250026103A28BF35
:1001500078C1FBD8520728BF30C148BF0B60704739
:100160001FB51FBD10B510BD00F058F81146FFF7C0
:10017000F7FF00F0BFFC00F076F803B4FFF7F2FFE2
:1001800003BC00F07DF8000009488047094800479B
:10019000FEE7FEE7FEE7FEE7FEE7FEE7FEE7FEE737
:1001A000FEE7FEE704480549054A064B7047000094
:1001B000CB0A0008ED000008780000207806002037
:1001C00078020020780200204FF0000200B51346AC
:1001D00094469646203922BFA0E80C50A0E80C5067
:1001E000B1F12001BFF4F7AF090728BFA0E80C5018
:1001F00048BF0CC05DF804EB890028BF40F8042B11
:1002000008BF704748BF20F8022B11F0804F18BF7D
:1002100000F8012B7047704770477047754600F033
:100220002BF8AE4605006946534620F00700854688
:1002300018B020B5FFF7B6FFBDE820404FF000062C
:100240004FF000074FF000084FF0000BAC46ACE851
:10025000C009ACE8C009ACE8C009ACE8C00921F0AD
:1002600007018D46704710B50446AFF30080204665
:10027000BDE81040FFF781BF004870471000002024
:1002800001491820ABBEFEE7260002007047FEE7DA
:1002900070470000B0B5044600F0E8F80546904805
:1002A000611C007818BF044400F0E0F8401BA04235
:1002B000FAD3B0BD2DE9FC4F594A04234FF0000B8F
:1002C0004FF001084FF00F0E4FF00009002590424B
:1002D00008BF032300930A6832FA05F308BFBDE89C
:1002E000FC8F08FA05F73A4200F095804A68032A25
:1002F00016D9112A24D0122A26D04C4B9A4213D058
:100300004B4B9A4210D04B4B9A420DD04A4B9A42DB
:100310000AD04A4B9A4207D0494B9A4204D020E077
:10032000DFE802F00216191D8A6832B1012A14BFF3
:10033000476107614FF0080913E04FF0040910E02E
:10034000CA6802F104090CE0CA6802F10C0908E06D
:10035000D1F80C9005E0CA6802F1080901E04FF0FD
:1003600000095A460446082D28BF203A28BF043405
:1003700026680EFA02F309FA02F226EA03031A4388
:100380002260CA79D20646D5644A0BF00C0C13469B
:10039000126842F001021A601A680EFA0CF302F0B9
:1003A000010201921F4A019CAC08A2F57E7656F824
:1003B000242022EA030A234A904208D0224A90428B
:1003C00007D0224A009B904208BF022302E000238C
:1003D00000E0012303FA0CF242EA0A0246F8242064
:1003E000104E114C4A68D302B36854BFBB433B4321
:1003F000B3609302236854BFBB433B432360930322
:10040000736854BFBB433B437360D203326854BF2D
:10041000BA433A4332600BF1040B01355BE700BF8E
:1004200000140140000401400C04014000001110C0
:1004300000001210000021100000221000003110F6
:100440000000321000080140000C01400010014083
:10045000C26802EA0103914341EA03410161704726
:10046000002A08BF090401617047000005480068C0
:10047000704700BF1A48034900780A6810440860B2
:10048000704700BF7000002080B58948016841F0C6
:1004900010010160032000F063F80F2000F004F861
:1004A00000F020F8002080BD70B50D4E04464FF4DA
:1004B0007A713078B1FBF0F07F490968B1FBF0F058
:1004C00000F0BCFA01250F2C08D838B94FF0FF30E6
:1004D00021460022002500F025F87460284670BDF2
:1004E0000000002082B00D480222016841F00101A5
:1004F0000160016801F0010101910199416841F039
:1005000080514160406800F080500090009804489D
:10051000016862F31A61016002B07047181002406E
:100520000400014080B5144B1B68C3F3022CBCF1DE
:10053000030E8CF007034FF0FF3C38BF4FF0000E66
:10054000042B28BF04230CFA03F399430CFA0EF38F
:1005500001FA0EF19A431143BDE8804000F0B8BAA9
:1005600005494FF6FF030A681A4060F30A22034860
:1005700010430860704700BF0CED00E00000FA0572
:100580002DE9F843002800F08E808846484904464B
:10059000086800F0070040450AD2086820F007000C
:1005A00040EA08000860086800F0070040457AD17A
:1005B0002068514B8946810711D5410742BF196810
:1005C00041F4E0611960010742BF196841F46051CC
:1005D00019601968A26821F0F00111431960C00781
:1005E0002AD06068012804D153F8041C890309D477
:1005F00059E053F8041C022802D1890102D452E0C8
:10060000890750D519681D4621F003010843186079
:10061000FFF72CFF064641F28837286861682B46B1
:1006200000F00C00B0EB810F06D0FFF71FFF801B1E
:10063000B842F2D9032037E0D9F8000000F00700F3
:1006400040450DD9D9F8000020F0070040EA080025
:10065000C9F80000D9F8000000F00700404522D199
:100660002068410705D51968E26821F4E06111436B
:100670001960000706D51868216920F4605040EA27
:10068000C10018601C4600F01BF82168094AC1F33C
:100690000311515CC840E749086008480068FFF74B
:1006A00003FF002000E0012001B0BDE8F08300BF9F
:1006B00000200240680B0008080000200400002011
:1006C00010B50D4C0D48226802F00C03082B18BF22
:1006D00010BDC2F383430AA1CB5CD10302D40D4801
:1006E000584310BD21680AA25843C1F34041515CF0
:1006F000B0FBF1F010BD00BF0410024000127A0000
:1007000002030405060708090A0B0C0D0E0F101052
:100710000102000000093D002DE9FC41002800F025
:10072000408104460078C14EC0074AD0706800F08E
:100730000C00042817D0706800F00C00082802D1C3
:100740007068C0030FD4606898B1B0F5803F06D0E0
:100750003168B0F5A02F21D141F48020306030689D
:1007600040F4803020E0306880032AD5606840BBC8
:1007700017E1306820F480303060306820F4802049
:100780003060FFF773FE05463068800319D5FFF728
:100790006DFE411B03206429F6D903E121F480306A
:1007A0003060306820F480203060FFF75FFE05463F
:1007B0003068800305D4FFF759FE401B6428F7D941
:1007C000D1E0207880072BD5706810F00C0F07D08F
:1007D000706800F00C00082809D17068C00306D4C6
:1007E0003068800715D52069012812D0D9E0216929
:1007F0008F4800297CD001210160FFF737FE0546B4
:100800003068800705D4FFF731FE401B0228F7D976
:10081000A9E03068616920F0F80040EAC10030606A
:10082000207800072ED5A06978B181480121C0F851
:100830008014FFF71BFE0546706A800715D4FFF78A
:1008400015FE401B0228F7D98DE079480021C0F839
:100850008014FFF70BFE0546706A800712D5FFF77C
:1008600005FE401B0228F7D97DE072484FF4FA518B
:100870000068B0FBF1F0019000BF0198411E002814
:100880000191F9D12078400776D5F069C0000BD4EA
:10089000F0694FF0010840F08050F061F06900F01D
:1008A00080500090009801E04FF00008624F3868D7
:1008B000C0050FD4386840F480703860FFF7D6FD6B
:1008C00005463868C00505D4FFF7D0FD401B6428F5
:1008D000F7D948E0E068D8B1012805D0316A052889
:1008E0002DD141F004003062306A40F001002CE06C
:1008F00000210160FFF7BAFD0546306880077FF5EB
:100900008FAFFFF7B3FD411B03200229F5D949E062
:10091000306A20F001003062306A20F0040030625A
:10092000FFF7A4FD054641F28837306A80071CD5E1
:10093000FFF79CFD411B0320B942F6D932E021F0BC
:1009400001003062306A20F004003062FFF78EFD53
:10095000054641F28837306A800706D4FFF786FDE6
:10096000401BB842F7D903201CE0B8F1000F1EBFAE
:10097000F06920F08050F061E769002F53D0706873
:1009800000F00C00082810D1012F0AD07068216AED
:1009900000F480328A4204D1616A00F47010884207
:1009A00041D0012002B0BDE8F081214900208846F5
:1009B0000866FFF75BFD0546022F0AD147463068FF
:1009C000800110D5FFF752FD411B03200229F6D903
:1009D000E8E73068800126D5FFF748FD411B03207A
:1009E0000229F6D9DEE7206AB0F5803F05D17168AB
:1009F000A26821F40031114371607168626A10438A
:100A000021F474110843706001203866FFF72EFD51
:100A100004463068800106D4FFF728FD011B03203F
:100A20000229F6D9BEE70020BCE700BF0010024053
:100A3000000042420800002000700040411E0020DB
:100A4000B0EB116F1CBF01207047044AF0235160C6
:100A500003490B70072190601160704710E000E0BF
:100A600023ED00E0FEE7FEE7FEE770477047FFF783
:100A700001BDB0B590B006AC2421201DFFF7A4FB4A
:100A800001A81421FFF7A0FB002510200D950B9065
:100A900001200A90022006902046FFF73DFE18B183
:100AA000EFF3108072B6FEE70F20CDE90455CDE9D3
:100AB00002550021019001A8FFF762FD18B1EFF384
:100AC000108072B6FEE710B0B0BD7047FEE70000C0
:100AD00010B5074C00F00F03044AB0F1FF3F234468
:100AE000C8BF83180801187010BD00BF00E400E003
:100AF00014ED00E084B0FFF7C7FCFFF7BAFF184819
:100B0000184C00224FF400550026016841F01001F6
:100B10000160016801F0100100910099016841F045
:100B2000040101604FF40051006800F004000090DF
:100B300000982046FFF794FC02206946CDE9026048
:100B40000120CDE900502046FFF7B4FB20464FF4CA
:100B50000051FFF77DFC4FF4FA70FFF79BFBF5E7C0
:100B600018100240001001400000000000000000CA
:100B70000102030406070809980B00080000002082
:100B80001000000028010008A80B00081000002039
:100B90006806000044010008010000001000000089
:080BA0000024F4000000000035
:04000005080000ED02
:00000001FF
